{
  "transactions": [
    {
      "hash": "0x06ba54fd3bfdf339ed9c862c3cdc669107c058c08d28a2c42587a5fcb357ddea",
      "transactionType": "CALL",
      "contractName": null,
      "contractAddress": "0x1eb7d3769a12cbd08c28feef7c4c8ebdaa989756",
      "function": "createMarket(string,string,uint256,uint256)",
      "arguments": [
        "Will Bitcoin reach $150,000 by end of 2025?",
        "Crypto",
        "7776000",
        "1000000000"
      ],
      "transaction": {
        "from": "0xe610b819dd190fc8154d0190bb3f3e9758d42baa",
        "to": "0x1eb7d3769a12cbd08c28feef7c4c8ebdaa989756",
        "gas": "0x51d72",
        "value": "0x0",
        "input": "0x39b6ee19000000000000000000000000000000000000000000000000000000000000008000000000000000000000000000000000000000000000000000000000000000e0000000000000000000000000000000000000000000000000000000000076a700000000000000000000000000000000000000000000000000000000003b9aca00000000000000000000000000000000000000000000000000000000000000002b57696c6c20426974636f696e20726561636820243135302c30303020627920656e64206f6620323032353f000000000000000000000000000000000000000000000000000000000000000000000000000000000000000000000000000000000643727970746f0000000000000000000000000000000000000000000000000000",
        "nonce": "0x16",
        "chainId": "0x128"
      },
      "additionalContracts": [],
      "isFixedGasLimit": false
    },
    {
      "hash": "0xd2816d52b089a06d13421e050fc43d261e8530629dfcb874a805c363ad3b0def",
      "transactionType": "CALL",
      "contractName": null,
      "contractAddress": "0x1eb7d3769a12cbd08c28feef7c4c8ebdaa989756",
      "function": "createMarket(string,string,uint256,uint256)",
      "arguments": [
        "Will Ethereum successfully complete the next major upgrade in Q2 2025?",
        "Technology",
        "5184000",
        "500000000"
      ],
      "transaction": {
        "from": "0xe610b819dd190fc8154d0190bb3f3e9758d42baa",
        "to": "0x1eb7d3769a12cbd08c28feef7c4c8ebdaa989756",
        "gas": "0x59949",
        "value": "0x0",
        "input": "0x39b6ee190000000000000000000000000000000000000000000000000000000000000080000000000000000000000000000000000000000000000000000000000000010000000000000000000000000000000000000000000000000000000000004f1a00000000000000000000000000000000000000000000000000000000001dcd6500000000000000000000000000000000000000000000000000000000000000004657696c6c20457468657265756d207375636365737366756c6c7920636f6d706c65746520746865206e657874206d616a6f72207570677261646520696e20513220323032353f0000000000000000000000000000000000000000000000000000000000000000000000000000000000000000000000000000000000000000000a546563686e6f6c6f677900000000000000000000000000000000000000000000",
        "nonce": "0x17",
        "chainId": "0x128"
      },
      "additionalContracts": [],
      "isFixedGasLimit": false
    },
    {
      "hash": "0xc3e691143198962cf9bc5ce05f3a77108874c01ca91b5edde5132aada5500b90",
      "transactionType": "CALL",
      "contractName": null,
      "contractAddress": "0x1eb7d3769a12cbd08c28feef7c4c8ebdaa989756",
      "function": "createMarket(string,string,uint256,uint256)",
      "arguments": [
        "Will Hedera have more than 10 billion transactions by end of 2025?",
        "Crypto",
        "10368000",
        "1000000000"
      ],
      "transaction": {
        "from": "0xe610b819dd190fc8154d0190bb3f3e9758d42baa",
        "to": "0x1eb7d3769a12cbd08c28feef7c4c8ebdaa989756",
        "gas": "0x598c4",
        "value": "0x0",
        "input": "0x39b6ee190000000000000000000000000000000000000000000000000000000000000080000000000000000000000000000000000000000000000000000000000000010000000000000000000000000000000000000000000000000000000000009e3400000000000000000000000000000000000000000000000000000000003b9aca00000000000000000000000000000000000000000000000000000000000000004257696c6c204865646572612068617665206d6f7265207468616e2031302062696c6c696f6e207472616e73616374696f6e7320627920656e64206f6620323032353f000000000000000000000000000000000000000000000000000000000000000000000000000000000000000000000000000000000000000000000000000643727970746f0000000000000000000000000000000000000000000000000000",
        "nonce": "0x18",
        "chainId": "0x128"
      },
      "additionalContracts": [],
      "isFixedGasLimit": false
    },
    {
      "hash": "0xd70f742b60807464a33699e4205db8d78b6e612eeeac4bd3c7c7e6dede1115dc",
      "transactionType": "CALL",
      "contractName": null,
      "contractAddress": "0x1eb7d3769a12cbd08c28feef7c4c8ebdaa989756",
      "function": "createMarket(string,string,uint256,uint256)",
      "arguments": [
        "Will Argentina defend their World Cup title in 2026?",
        "Sports",
        "15552000",
        "1500000000"
      ],
      "transaction": {
        "from": "0xe610b819dd190fc8154d0190bb3f3e9758d42baa",
        "to": "0x1eb7d3769a12cbd08c28feef7c4c8ebdaa989756",
        "gas": "0x51e07",
        "value": "0x0",
        "input": "0x39b6ee19000000000000000000000000000000000000000000000000000000000000008000000000000000000000000000000000000000000000000000000000000000e00000000000000000000000000000000000000000000000000000000000ed4e000000000000000000000000000000000000000000000000000000000059682f00000000000000000000000000000000000000000000000000000000000000003457696c6c20417267656e74696e6120646566656e6420746865697220576f726c6420437570207469746c6520696e20323032363f000000000000000000000000000000000000000000000000000000000000000000000000000000000000000653706f7274730000000000000000000000000000000000000000000000000000",
        "nonce": "0x19",
        "chainId": "0x128"
      },
      "additionalContracts": [],
      "isFixedGasLimit": false
    },
    {
      "hash": "0x2d370584d13b508a171ba5321d2b2c029c3e10fb66e38c929fd62a2fde8a047d",
      "transactionType": "CALL",
      "contractName": null,
      "contractAddress": "0x1eb7d3769a12cbd08c28feef7c4c8ebdaa989756",
      "function": "createMarket(string,string,uint256,uint256)",
      "arguments": [
        "Will OpenAI release GPT-5 in 2025?",
        "Technology",
        "12960000",
        "1000000000"
      ],
      "transaction": {
        "from": "0xe610b819dd190fc8154d0190bb3f3e9758d42baa",
        "to": "0x1eb7d3769a12cbd08c28feef7c4c8ebdaa989756",
        "gas": "0x51d1e",
        "value": "0x0",
        "input": "0x39b6ee19000000000000000000000000000000000000000000000000000000000000008000000000000000000000000000000000000000000000000000000000000000e00000000000000000000000000000000000000000000000000000000000c5c100000000000000000000000000000000000000000000000000000000003b9aca00000000000000000000000000000000000000000000000000000000000000002257696c6c204f70656e41492072656c65617365204750542d3520696e20323032353f000000000000000000000000000000000000000000000000000000000000000000000000000000000000000000000000000000000000000000000000000a546563686e6f6c6f677900000000000000000000000000000000000000000000",
        "nonce": "0x1a",
        "chainId": "0x128"
      },
      "additionalContracts": [],
      "isFixedGasLimit": false
    },
    {
      "hash": "0xab496873c51d9ab2786f9b100ee84552486f44f085fc862b5b5d2be6f811a886",
      "transactionType": "CALL",
      "contractName": null,
      "contractAddress": "0x1eb7d3769a12cbd08c28feef7c4c8ebdaa989756",
      "function": "createMarket(string,string,uint256,uint256)",
      "arguments": [
        "Will the US approve a national crypto regulation framework in 2025?",
        "Politics",
        "15552000",
        "2000000000"
      ],
      "transaction": {
        "from": "0xe610b819dd190fc8154d0190bb3f3e9758d42baa",
        "to": "0x1eb7d3769a12cbd08c28feef7c4c8ebdaa989756",
        "gas": "0x5ed41",
        "value": "0x0",
        "input": "0x39b6ee19000000000000000000000000000000000000000000000000000000000000008000000000000000000000000000000000000000000000000000000000000001000000000000000000000000000000000000000000000000000000000000ed4e000000000000000000000000000000000000000000000000000000000077359400000000000000000000000000000000000000000000000000000000000000004357696c6c2074686520555320617070726f76652061206e6174696f6e616c2063727970746f20726567756c6174696f6e206672616d65776f726b20696e20323032353f00000000000000000000000000000000000000000000000000000000000000000000000000000000000000000000000000000000000000000000000008506f6c6974696373000000000000000000000000000000000000000000000000",
        "nonce": "0x1b",
        "chainId": "0x128"
      },
      "additionalContracts": [],
      "isFixedGasLimit": false
    },
    {
      "hash": "0x5f1f843df09a997dca6db612031343244afd79925cd1a3b887c11a61953b790e",
      "transactionType": "CALL",
      "contractName": null,
      "contractAddress": "0x1eb7d3769a12cbd08c28feef7c4c8ebdaa989756",
      "function": "createMarket(string,string,uint256,uint256)",
      "arguments": [
        "Will SpaceX successfully land humans on Mars by 2027?",
        "Space",
        "31536000",
        "2500000000"
      ],
      "transaction": {
        "from": "0xe610b819dd190fc8154d0190bb3f3e9758d42baa",
        "to": "0x1eb7d3769a12cbd08c28feef7c4c8ebdaa989756",
        "gas": "0x51e28",
        "value": "0x0",
        "input": "0x39b6ee19000000000000000000000000000000000000000000000000000000000000008000000000000000000000000000000000000000000000000000000000000000e00000000000000000000000000000000000000000000000000000000001e13380000000000000000000000000000000000000000000000000000000009502f900000000000000000000000000000000000000000000000000000000000000003557696c6c20537061636558207375636365737366756c6c79206c616e642068756d616e73206f6e204d61727320627920323032373f000000000000000000000000000000000000000000000000000000000000000000000000000000000000055370616365000000000000000000000000000000000000000000000000000000",
        "nonce": "0x1c",
        "chainId": "0x128"
      },
      "additionalContracts": [],
      "isFixedGasLimit": false
    },
    {
      "hash": "0x45ea3abd8fa67d7bd1d756e1f47868dc45cd54ac0d97a8f05f7c5adb48d26e4a",
      "transactionType": "CALL",
      "contractName": null,
      "contractAddress": "0x1eb7d3769a12cbd08c28feef7c4c8ebdaa989756",
      "function": "createMarket(string,string,uint256,uint256)",
      "arguments": [
        "Will DeFi Total Value Locked (TVL) exceed $200B in 2025?",
        "Crypto",
        "10368000",
        "1000000000"
      ],
      "transaction": {
        "from": "0xe610b819dd190fc8154d0190bb3f3e9758d42baa",
        "to": "0x1eb7d3769a12cbd08c28feef7c4c8ebdaa989756",
        "gas": "0x51e49",
        "value": "0x0",
        "input": "0x39b6ee19000000000000000000000000000000000000000000000000000000000000008000000000000000000000000000000000000000000000000000000000000000e000000000000000000000000000000000000000000000000000000000009e3400000000000000000000000000000000000000000000000000000000003b9aca00000000000000000000000000000000000000000000000000000000000000003857696c6c204465466920546f74616c2056616c7565204c6f636b6564202854564c292065786365656420243230304220696e20323032353f0000000000000000000000000000000000000000000000000000000000000000000000000000000643727970746f0000000000000000000000000000000000000000000000000000",
        "nonce": "0x1d",
        "chainId": "0x128"
      },
      "additionalContracts": [],
      "isFixedGasLimit": false
    },
    {
      "hash": "0x62dc68513443efb9cf086802ed7a5bee1a0af04c1046e8a8ebfa6e406c5758f1",
      "transactionType": "CALL",
      "contractName": null,
      "contractAddress": "0x1eb7d3769a12cbd08c28feef7c4c8ebdaa989756",
      "function": "createMarket(string,string,uint256,uint256)",
      "arguments": [
        "Will NFT trading volume recover to $5B+ monthly by end of 2025?",
        "Technology",
        "7776000",
        "1000000000"
      ],
      "transaction": {
        "from": "0xe610b819dd190fc8154d0190bb3f3e9758d42baa",
        "to": "0x1eb7d3769a12cbd08c28feef7c4c8ebdaa989756",
        "gas": "0x51eff",
        "value": "0x0",
        "input": "0x39b6ee19000000000000000000000000000000000000000000000000000000000000008000000000000000000000000000000000000000000000000000000000000000e0000000000000000000000000000000000000000000000000000000000076a700000000000000000000000000000000000000000000000000000000003b9aca00000000000000000000000000000000000000000000000000000000000000003f57696c6c204e46542074726164696e6720766f6c756d65207265636f76657220746f202435422b206d6f6e74686c7920627920656e64206f6620323032353f00000000000000000000000000000000000000000000000000000000000000000a546563686e6f6c6f677900000000000000000000000000000000000000000000",
        "nonce": "0x1e",
        "chainId": "0x128"
      },
      "additionalContracts": [],
      "isFixedGasLimit": false
    },
    {
      "hash": "0x81ca6786c1fb28407dcebe2d15f83db503d5704d7097edc3b081d61693d74404",
      "transactionType": "CALL",
      "contractName": null,
      "contractAddress": "0x1eb7d3769a12cbd08c28feef7c4c8ebdaa989756",
      "function": "createMarket(string,string,uint256,uint256)",
      "arguments": [
        "Will global carbon emissions decrease by 10% in 2025?",
        "Politics",
        "31536000",
        "1500000000"
      ],
      "transaction": {
        "from": "0xe610b819dd190fc8154d0190bb3f3e9758d42baa",
        "to": "0x1eb7d3769a12cbd08c28feef7c4c8ebdaa989756",
        "gas": "0x51e59",
        "value": "0x0",
        "input": "0x39b6ee19000000000000000000000000000000000000000000000000000000000000008000000000000000000000000000000000000000000000000000000000000000e00000000000000000000000000000000000000000000000000000000001e133800000000000000000000000000000000000000000000000000000000059682f00000000000000000000000000000000000000000000000000000000000000003557696c6c20676c6f62616c20636172626f6e20656d697373696f6e732064656372656173652062792031302520696e20323032353f00000000000000000000000000000000000000000000000000000000000000000000000000000000000008506f6c6974696373000000000000000000000000000000000000000000000000",
        "nonce": "0x1f",
        "chainId": "0x128"
      },
      "additionalContracts": [],
      "isFixedGasLimit": false
    }
  ],
  "receipts": [
    {
      "status": "0x1",
      "cumulativeGasUsed": "0xd42fb",
      "logs": [
        {
          "address": "0x1eb7d3769a12cbd08c28feef7c4c8ebdaa989756",
          "topics": [
            "0x17d90d3582c74be4b748fcd33bff502fbee3da6e29c772512a0b6eac36528be8",
            "0x0000000000000000000000000000000000000000000000000000000000000002"
          ],
          "data": "0x000000000000000000000000000000000000000000000000000000000000008000000000000000000000000000000000000000000000000000000000000000e00000000000000000000000000000000000000000000000000000000069978065000000000000000000000000000000000000000000000000000000003b9aca00000000000000000000000000000000000000000000000000000000000000002b57696c6c20426974636f696e20726561636820243135302c30303020627920656e64206f6620323032353f000000000000000000000000000000000000000000000000000000000000000000000000000000000000000000000000000000000643727970746f0000000000000000000000000000000000000000000000000000",
          "blockHash": "0xce8ba593a0f0701b78f4cf0589f67f679ae49a54cfb0185f0356155fdf33ba90",
          "blockNumber": "0x1a91059",
          "blockTimestamp": "0x6920d965",
          "transactionHash": "0x06ba54fd3bfdf339ed9c862c3cdc669107c058c08d28a2c42587a5fcb357ddea",
          "transactionIndex": "0x16",
          "logIndex": "0x1",
          "removed": false
        }
      ],
      "logsBloom": "0x04000000000000000000000000000000000000000000000000000000000000000000000000000000000000000000000000000000000000000000000000000000000000000000000000000000000000000000000000040000000000000000000000000000000000000000000000000000000000000000000000000000000000000000000000000000000000000000000000000000000000000000000000000000000000000000010000000100000000000000000000000000000000000000000000000000000000000000000000000000000000000000000400000080000000000000000000000000000000000008000000000000028000000000000000000000",
      "type": "0x2",
      "transactionHash": "0x06ba54fd3bfdf339ed9c862c3cdc669107c058c08d28a2c42587a5fcb357ddea",
      "transactionIndex": "0x16",
      "blockHash": "0xce8ba593a0f0701b78f4cf0589f67f679ae49a54cfb0185f0356155fdf33ba90",
      "blockNumber": "0x1a91059",
      "gasUsed": "0x3b404",
      "effectiveGasPrice": "0x9502f90000",
      "from": "0xe610b819dd190fc8154d0190bb3f3e9758d42baa",
      "to": "0x1eb7d3769a12cbd08c28feef7c4c8ebdaa989756",
      "contractAddress": "0x1eb7d3769a12cbd08c28feef7c4c8ebdaa989756",
      "root": "0x56e81f171bcc55a6ff8345e692c0f86e5b48e01b996cadc001622fb5e363b421"
    },
    {
      "status": "0x1",
      "cumulativeGasUsed": "0xd42fb",
      "logs": [
        {
          "address": "0x1eb7d3769a12cbd08c28feef7c4c8ebdaa989756",
          "topics": [
            "0x17d90d3582c74be4b748fcd33bff502fbee3da6e29c772512a0b6eac36528be8",
            "0x0000000000000000000000000000000000000000000000000000000000000003"
          ],
          "data": "0x0000000000000000000000000000000000000000000000000000000000000080000000000000000000000000000000000000000000000000000000000000010000000000000000000000000000000000000000000000000000000000696ff365000000000000000000000000000000000000000000000000000000001dcd6500000000000000000000000000000000000000000000000000000000000000004657696c6c20457468657265756d207375636365737366756c6c7920636f6d706c65746520746865206e657874206d616a6f72207570677261646520696e20513220323032353f0000000000000000000000000000000000000000000000000000000000000000000000000000000000000000000000000000000000000000000a546563686e6f6c6f677900000000000000000000000000000000000000000000",
          "blockHash": "0xce8ba593a0f0701b78f4cf0589f67f679ae49a54cfb0185f0356155fdf33ba90",
          "blockNumber": "0x1a91059",
          "blockTimestamp": "0x6920d965",
          "transactionHash": "0xd2816d52b089a06d13421e050fc43d261e8530629dfcb874a805c363ad3b0def",
          "transactionIndex": "0x1a",
          "logIndex": "0x2",
          "removed": false
        }
      ],
      "logsBloom": "0x00000000000000000000000000000000000000000000000000000000000000000000000000000000000000000000000000000000020000000000000000000000000000000000000000000000000000000000000000040000000000000000000000000000000000000000000000000000000000000000000000000000000000000000000000000000000000000000000000000000000000000000000000000000000000000000010000000000000000000000000000800000000000000000400000000000000000000000000000000000000000000000000400000080000000000000000000000000000000000008000000000000020000000000000000000000",
      "type": "0x2",
      "transactionHash": "0xd2816d52b089a06d13421e050fc43d261e8530629dfcb874a805c363ad3b0def",
      "transactionIndex": "0x1a",
      "blockHash": "0xce8ba593a0f0701b78f4cf0589f67f679ae49a54cfb0185f0356155fdf33ba90",
      "blockNumber": "0x1a91059",
      "gasUsed": "0x40dad",
      "effectiveGasPrice": "0x9502f90000",
      "from": "0xe610b819dd190fc8154d0190bb3f3e9758d42baa",
      "to": "0x1eb7d3769a12cbd08c28feef7c4c8ebdaa989756",
      "contractAddress": "0x1eb7d3769a12cbd08c28feef7c4c8ebdaa989756",
      "root": "0x56e81f171bcc55a6ff8345e692c0f86e5b48e01b996cadc001622fb5e363b421"
    },
    {
      "status": "0x1",
      "cumulativeGasUsed": "0xd42fb",
      "logs": [
        {
          "address": "0x1eb7d3769a12cbd08c28feef7c4c8ebdaa989756",
          "topics": [
            "0x17d90d3582c74be4b748fcd33bff502fbee3da6e29c772512a0b6eac36528be8",
            "0x0000000000000000000000000000000000000000000000000000000000000004"
          ],
          "data": "0x000000000000000000000000000000000000000000000000000000000000008000000000000000000000000000000000000000000000000000000000000001000000000000000000000000000000000000000000000000000000000069bf0d65000000000000000000000000000000000000000000000000000000003b9aca00000000000000000000000000000000000000000000000000000000000000004257696c6c204865646572612068617665206d6f7265207468616e2031302062696c6c696f6e207472616e73616374696f6e7320627920656e64206f6620323032353f000000000000000000000000000000000000000000000000000000000000000000000000000000000000000000000000000000000000000000000000000643727970746f0000000000000000000000000000000000000000000000000000",
          "blockHash": "0xce8ba593a0f0701b78f4cf0589f67f679ae49a54cfb0185f0356155fdf33ba90",
          "blockNumber": "0x1a91059",
          "blockTimestamp": "0x6920d965",
          "transactionHash": "0xc3e691143198962cf9bc5ce05f3a77108874c01ca91b5edde5132aada5500b90",
          "transactionIndex": "0x1e",
          "logIndex": "0x3",
          "removed": false
        }
      ],
      "logsBloom": "0x00000000000000000000000000000000000000000000000000000000000000000000000000000000000000000000000000000000000000000000000000000000000000000000000000000000000000000000000000040000000000000000000008000000000000000000000000000000000000000000000000000000000000000000000000000000000000000000000000000000000000000000000000000000000000000000010000000000000000000000000000000000002000000000000000000000000000000000000000000000000000008000000400000080000000000000000000000000000000000008000000000000020000000000000000000000",
      "type": "0x2",
      "transactionHash": "0xc3e691143198962cf9bc5ce05f3a77108874c01ca91b5edde5132aada5500b90",
      "transactionIndex": "0x1e",
      "blockHash": "0xce8ba593a0f0701b78f4cf0589f67f679ae49a54cfb0185f0356155fdf33ba90",
      "blockNumber": "0x1a91059",
      "gasUsed": "0x40d4d",
      "effectiveGasPrice": "0x9502f90000",
      "from": "0xe610b819dd190fc8154d0190bb3f3e9758d42baa",
      "to": "0x1eb7d3769a12cbd08c28feef7c4c8ebdaa989756",
      "contractAddress": "0x1eb7d3769a12cbd08c28feef7c4c8ebdaa989756",
      "root": "0x56e81f171bcc55a6ff8345e692c0f86e5b48e01b996cadc001622fb5e363b421"
    }
  ],
  "libraries": [],
  "pending": [],
  "returns": {},
  "timestamp": 1763760491808,
  "chain": 296,
  "commit": "cb37dd1"
}