{
  "transactions": [
    {
      "hash": "0x21af982b1ddb96e07cbc4dd2753f8259244eb02f881b76d8afd6f41fcbe3f9e4",
      "transactionType": "CALL",
      "contractName": null,
      "contractAddress": "0x1eb7d3769a12cbd08c28feef7c4c8ebdaa989756",
      "function": "createMarket(string,string,uint256,uint256)",
      "arguments": [
        "Will Bitcoin reach $150,000 by end of 2025?",
        "Crypto",
        "7776000",
        "1000000000"
      ],
      "transaction": {
        "from": "0xe610b819dd190fc8154d0190bb3f3e9758d42baa",
        "to": "0x1eb7d3769a12cbd08c28feef7c4c8ebdaa989756",
        "gas": "0x51d72",
        "value": "0x0",
        "input": "0x39b6ee19000000000000000000000000000000000000000000000000000000000000008000000000000000000000000000000000000000000000000000000000000000e0000000000000000000000000000000000000000000000000000000000076a700000000000000000000000000000000000000000000000000000000003b9aca00000000000000000000000000000000000000000000000000000000000000002b57696c6c20426974636f696e20726561636820243135302c30303020627920656e64206f6620323032353f000000000000000000000000000000000000000000000000000000000000000000000000000000000000000000000000000000000643727970746f0000000000000000000000000000000000000000000000000000",
        "nonce": "0x19",
        "chainId": "0x128"
      },
      "additionalContracts": [],
      "isFixedGasLimit": false
    },
    {
      "hash": "0x35cb8fa6c0d0ae36a3e2836ac4e06231c299a9c67a6ec9701b418b9beccd4fa4",
      "transactionType": "CALL",
      "contractName": null,
      "contractAddress": "0x1eb7d3769a12cbd08c28feef7c4c8ebdaa989756",
      "function": "createMarket(string,string,uint256,uint256)",
      "arguments": [
        "Will Ethereum successfully complete the next major upgrade in Q2 2025?",
        "Technology",
        "5184000",
        "500000000"
      ],
      "transaction": {
        "from": "0xe610b819dd190fc8154d0190bb3f3e9758d42baa",
        "to": "0x1eb7d3769a12cbd08c28feef7c4c8ebdaa989756",
        "gas": "0x59949",
        "value": "0x0",
        "input": "0x39b6ee190000000000000000000000000000000000000000000000000000000000000080000000000000000000000000000000000000000000000000000000000000010000000000000000000000000000000000000000000000000000000000004f1a00000000000000000000000000000000000000000000000000000000001dcd6500000000000000000000000000000000000000000000000000000000000000004657696c6c20457468657265756d207375636365737366756c6c7920636f6d706c65746520746865206e657874206d616a6f72207570677261646520696e20513220323032353f0000000000000000000000000000000000000000000000000000000000000000000000000000000000000000000000000000000000000000000a546563686e6f6c6f677900000000000000000000000000000000000000000000",
        "nonce": "0x1a",
        "chainId": "0x128"
      },
      "additionalContracts": [],
      "isFixedGasLimit": false
    },
    {
      "hash": "0x86e5b657302cfb3cc5e8b2daa63100931396ae516710dd34764ae1af3fc099e0",
      "transactionType": "CALL",
      "contractName": null,
      "contractAddress": "0x1eb7d3769a12cbd08c28feef7c4c8ebdaa989756",
      "function": "createMarket(string,string,uint256,uint256)",
      "arguments": [
        "Will Hedera have more than 10 billion transactions by end of 2025?",
        "Crypto",
        "10368000",
        "1000000000"
      ],
      "transaction": {
        "from": "0xe610b819dd190fc8154d0190bb3f3e9758d42baa",
        "to": "0x1eb7d3769a12cbd08c28feef7c4c8ebdaa989756",
        "gas": "0x598c4",
        "value": "0x0",
        "input": "0x39b6ee190000000000000000000000000000000000000000000000000000000000000080000000000000000000000000000000000000000000000000000000000000010000000000000000000000000000000000000000000000000000000000009e3400000000000000000000000000000000000000000000000000000000003b9aca00000000000000000000000000000000000000000000000000000000000000004257696c6c204865646572612068617665206d6f7265207468616e2031302062696c6c696f6e207472616e73616374696f6e7320627920656e64206f6620323032353f000000000000000000000000000000000000000000000000000000000000000000000000000000000000000000000000000000000000000000000000000643727970746f0000000000000000000000000000000000000000000000000000",
        "nonce": "0x1b",
        "chainId": "0x128"
      },
      "additionalContracts": [],
      "isFixedGasLimit": false
    },
    {
      "hash": "0x933758e5355493b65ac6439da28eb5922d349bd7d56b723219f3828fa3bc9e56",
      "transactionType": "CALL",
      "contractName": null,
      "contractAddress": "0x1eb7d3769a12cbd08c28feef7c4c8ebdaa989756",
      "function": "createMarket(string,string,uint256,uint256)",
      "arguments": [
        "Will Argentina defend their World Cup title in 2026?",
        "Sports",
        "15552000",
        "1500000000"
      ],
      "transaction": {
        "from": "0xe610b819dd190fc8154d0190bb3f3e9758d42baa",
        "to": "0x1eb7d3769a12cbd08c28feef7c4c8ebdaa989756",
        "gas": "0x51e07",
        "value": "0x0",
        "input": "0x39b6ee19000000000000000000000000000000000000000000000000000000000000008000000000000000000000000000000000000000000000000000000000000000e00000000000000000000000000000000000000000000000000000000000ed4e000000000000000000000000000000000000000000000000000000000059682f00000000000000000000000000000000000000000000000000000000000000003457696c6c20417267656e74696e6120646566656e6420746865697220576f726c6420437570207469746c6520696e20323032363f000000000000000000000000000000000000000000000000000000000000000000000000000000000000000653706f7274730000000000000000000000000000000000000000000000000000",
        "nonce": "0x1c",
        "chainId": "0x128"
      },
      "additionalContracts": [],
      "isFixedGasLimit": false
    },
    {
      "hash": "0x51b2892770a098e19643c6e9cb1d53cd3d274da574504891200f1cb06936fc34",
      "transactionType": "CALL",
      "contractName": null,
      "contractAddress": "0x1eb7d3769a12cbd08c28feef7c4c8ebdaa989756",
      "function": "createMarket(string,string,uint256,uint256)",
      "arguments": [
        "Will OpenAI release GPT-5 in 2025?",
        "Technology",
        "12960000",
        "1000000000"
      ],
      "transaction": {
        "from": "0xe610b819dd190fc8154d0190bb3f3e9758d42baa",
        "to": "0x1eb7d3769a12cbd08c28feef7c4c8ebdaa989756",
        "gas": "0x51d1e",
        "value": "0x0",
        "input": "0x39b6ee19000000000000000000000000000000000000000000000000000000000000008000000000000000000000000000000000000000000000000000000000000000e00000000000000000000000000000000000000000000000000000000000c5c100000000000000000000000000000000000000000000000000000000003b9aca00000000000000000000000000000000000000000000000000000000000000002257696c6c204f70656e41492072656c65617365204750542d3520696e20323032353f000000000000000000000000000000000000000000000000000000000000000000000000000000000000000000000000000000000000000000000000000a546563686e6f6c6f677900000000000000000000000000000000000000000000",
        "nonce": "0x1d",
        "chainId": "0x128"
      },
      "additionalContracts": [],
      "isFixedGasLimit": false
    },
    {
      "hash": "0x9d9d9bcbdaecd7bcb3e4f3caaecd655c99e74fde7669c2dd8a6a62423dff7169",
      "transactionType": "CALL",
      "contractName": null,
      "contractAddress": "0x1eb7d3769a12cbd08c28feef7c4c8ebdaa989756",
      "function": "createMarket(string,string,uint256,uint256)",
      "arguments": [
        "Will the US approve a national crypto regulation framework in 2025?",
        "Politics",
        "15552000",
        "2000000000"
      ],
      "transaction": {
        "from": "0xe610b819dd190fc8154d0190bb3f3e9758d42baa",
        "to": "0x1eb7d3769a12cbd08c28feef7c4c8ebdaa989756",
        "gas": "0x5ed41",
        "value": "0x0",
        "input": "0x39b6ee19000000000000000000000000000000000000000000000000000000000000008000000000000000000000000000000000000000000000000000000000000001000000000000000000000000000000000000000000000000000000000000ed4e000000000000000000000000000000000000000000000000000000000077359400000000000000000000000000000000000000000000000000000000000000004357696c6c2074686520555320617070726f76652061206e6174696f6e616c2063727970746f20726567756c6174696f6e206672616d65776f726b20696e20323032353f00000000000000000000000000000000000000000000000000000000000000000000000000000000000000000000000000000000000000000000000008506f6c6974696373000000000000000000000000000000000000000000000000",
        "nonce": "0x1e",
        "chainId": "0x128"
      },
      "additionalContracts": [],
      "isFixedGasLimit": false
    },
    {
      "hash": "0x8e6d345e331eb944a181b1e224d1f7e512b2578c87802f8c7f88d4441620aa8d",
      "transactionType": "CALL",
      "contractName": null,
      "contractAddress": "0x1eb7d3769a12cbd08c28feef7c4c8ebdaa989756",
      "function": "createMarket(string,string,uint256,uint256)",
      "arguments": [
        "Will SpaceX successfully land humans on Mars by 2027?",
        "Space",
        "31536000",
        "2500000000"
      ],
      "transaction": {
        "from": "0xe610b819dd190fc8154d0190bb3f3e9758d42baa",
        "to": "0x1eb7d3769a12cbd08c28feef7c4c8ebdaa989756",
        "gas": "0x51e28",
        "value": "0x0",
        "input": "0x39b6ee19000000000000000000000000000000000000000000000000000000000000008000000000000000000000000000000000000000000000000000000000000000e00000000000000000000000000000000000000000000000000000000001e13380000000000000000000000000000000000000000000000000000000009502f900000000000000000000000000000000000000000000000000000000000000003557696c6c20537061636558207375636365737366756c6c79206c616e642068756d616e73206f6e204d61727320627920323032373f000000000000000000000000000000000000000000000000000000000000000000000000000000000000055370616365000000000000000000000000000000000000000000000000000000",
        "nonce": "0x1f",
        "chainId": "0x128"
      },
      "additionalContracts": [],
      "isFixedGasLimit": false
    },
    {
      "hash": "0xfd63dbf68b7311754eda5e410d0d61616f8eb8e794b30136f6b84acda03ea9e9",
      "transactionType": "CALL",
      "contractName": null,
      "contractAddress": "0x1eb7d3769a12cbd08c28feef7c4c8ebdaa989756",
      "function": "createMarket(string,string,uint256,uint256)",
      "arguments": [
        "Will DeFi Total Value Locked (TVL) exceed $200B in 2025?",
        "Crypto",
        "10368000",
        "1000000000"
      ],
      "transaction": {
        "from": "0xe610b819dd190fc8154d0190bb3f3e9758d42baa",
        "to": "0x1eb7d3769a12cbd08c28feef7c4c8ebdaa989756",
        "gas": "0x51e49",
        "value": "0x0",
        "input": "0x39b6ee19000000000000000000000000000000000000000000000000000000000000008000000000000000000000000000000000000000000000000000000000000000e000000000000000000000000000000000000000000000000000000000009e3400000000000000000000000000000000000000000000000000000000003b9aca00000000000000000000000000000000000000000000000000000000000000003857696c6c204465466920546f74616c2056616c7565204c6f636b6564202854564c292065786365656420243230304220696e20323032353f0000000000000000000000000000000000000000000000000000000000000000000000000000000643727970746f0000000000000000000000000000000000000000000000000000",
        "nonce": "0x20",
        "chainId": "0x128"
      },
      "additionalContracts": [],
      "isFixedGasLimit": false
    },
    {
      "hash": "0x0c04348b014c2642b903fb9582d8f2e19ab319b2247d3574f781491b53356902",
      "transactionType": "CALL",
      "contractName": null,
      "contractAddress": "0x1eb7d3769a12cbd08c28feef7c4c8ebdaa989756",
      "function": "createMarket(string,string,uint256,uint256)",
      "arguments": [
        "Will NFT trading volume recover to $5B+ monthly by end of 2025?",
        "Technology",
        "7776000",
        "1000000000"
      ],
      "transaction": {
        "from": "0xe610b819dd190fc8154d0190bb3f3e9758d42baa",
        "to": "0x1eb7d3769a12cbd08c28feef7c4c8ebdaa989756",
        "gas": "0x51eff",
        "value": "0x0",
        "input": "0x39b6ee19000000000000000000000000000000000000000000000000000000000000008000000000000000000000000000000000000000000000000000000000000000e0000000000000000000000000000000000000000000000000000000000076a700000000000000000000000000000000000000000000000000000000003b9aca00000000000000000000000000000000000000000000000000000000000000003f57696c6c204e46542074726164696e6720766f6c756d65207265636f76657220746f202435422b206d6f6e74686c7920627920656e64206f6620323032353f00000000000000000000000000000000000000000000000000000000000000000a546563686e6f6c6f677900000000000000000000000000000000000000000000",
        "nonce": "0x21",
        "chainId": "0x128"
      },
      "additionalContracts": [],
      "isFixedGasLimit": false
    },
    {
      "hash": "0xe96b60959f05bdc45f2b05d7a03acafa715b5260efa90120bd21adf2705249da",
      "transactionType": "CALL",
      "contractName": null,
      "contractAddress": "0x1eb7d3769a12cbd08c28feef7c4c8ebdaa989756",
      "function": "createMarket(string,string,uint256,uint256)",
      "arguments": [
        "Will global carbon emissions decrease by 10% in 2025?",
        "Politics",
        "31536000",
        "1500000000"
      ],
      "transaction": {
        "from": "0xe610b819dd190fc8154d0190bb3f3e9758d42baa",
        "to": "0x1eb7d3769a12cbd08c28feef7c4c8ebdaa989756",
        "gas": "0x51e59",
        "value": "0x0",
        "input": "0x39b6ee19000000000000000000000000000000000000000000000000000000000000008000000000000000000000000000000000000000000000000000000000000000e00000000000000000000000000000000000000000000000000000000001e133800000000000000000000000000000000000000000000000000000000059682f00000000000000000000000000000000000000000000000000000000000000003557696c6c20676c6f62616c20636172626f6e20656d697373696f6e732064656372656173652062792031302520696e20323032353f00000000000000000000000000000000000000000000000000000000000000000000000000000000000008506f6c6974696373000000000000000000000000000000000000000000000000",
        "nonce": "0x22",
        "chainId": "0x128"
      },
      "additionalContracts": [],
      "isFixedGasLimit": false
    }
  ],
  "receipts": [
    {
      "status": "0x1",
      "cumulativeGasUsed": "0xc3f45",
      "logs": [
        {
          "address": "0x1eb7d3769a12cbd08c28feef7c4c8ebdaa989756",
          "topics": [
            "0x17d90d3582c74be4b748fcd33bff502fbee3da6e29c772512a0b6eac36528be8",
            "0x0000000000000000000000000000000000000000000000000000000000000005"
          ],
          "data": "0x000000000000000000000000000000000000000000000000000000000000008000000000000000000000000000000000000000000000000000000000000000e000000000000000000000000000000000000000000000000000000000699780c7000000000000000000000000000000000000000000000000000000003b9aca00000000000000000000000000000000000000000000000000000000000000002b57696c6c20426974636f696e20726561636820243135302c30303020627920656e64206f6620323032353f000000000000000000000000000000000000000000000000000000000000000000000000000000000000000000000000000000000643727970746f0000000000000000000000000000000000000000000000000000",
          "blockHash": "0x0ee12f0a91a3d25d9932846aeba86abe9d4054285ce8ffb8bd564907437e5445",
          "blockNumber": "0x1a9108b",
          "blockTimestamp": "0x6920d9c8",
          "transactionHash": "0x21af982b1ddb96e07cbc4dd2753f8259244eb02f881b76d8afd6f41fcbe3f9e4",
          "transactionIndex": "0x2",
          "logIndex": "0x0",
          "removed": false
        }
      ],
      "logsBloom": "0x00000000000000000000000000000000000000000000000000000000000000000000000000000000000000000000000000000000000000000000000000000000000010000000000000000000000000000000000000040000000000000000000000000000000000000000000000000000000000000000000000000000000000000000000000000000000000000000001000000800000000000000000000000000000000000000010000000000000000000000000000000000000000000000000000000000000000000000000000000000000000000000000400000080000000000000000000000000000000000008000000000000020000000000000000000000",
      "type": "0x2",
      "transactionHash": "0x21af982b1ddb96e07cbc4dd2753f8259244eb02f881b76d8afd6f41fcbe3f9e4",
      "transactionIndex": "0x2",
      "blockHash": "0x0ee12f0a91a3d25d9932846aeba86abe9d4054285ce8ffb8bd564907437e5445",
      "blockNumber": "0x1a9108b",
      "gasUsed": "0x3b404",
      "effectiveGasPrice": "0x9502f90000",
      "from": "0xe610b819dd190fc8154d0190bb3f3e9758d42baa",
      "to": "0x1eb7d3769a12cbd08c28feef7c4c8ebdaa989756",
      "contractAddress": "0x1eb7d3769a12cbd08c28feef7c4c8ebdaa989756",
      "root": "0x56e81f171bcc55a6ff8345e692c0f86e5b48e01b996cadc001622fb5e363b421"
    },
    {
      "status": "0x1",
      "cumulativeGasUsed": "0xc3f45",
      "logs": [
        {
          "address": "0x1eb7d3769a12cbd08c28feef7c4c8ebdaa989756",
          "topics": [
            "0x17d90d3582c74be4b748fcd33bff502fbee3da6e29c772512a0b6eac36528be8",
            "0x0000000000000000000000000000000000000000000000000000000000000006"
          ],
          "data": "0x0000000000000000000000000000000000000000000000000000000000000080000000000000000000000000000000000000000000000000000000000000010000000000000000000000000000000000000000000000000000000000696ff3c7000000000000000000000000000000000000000000000000000000001dcd6500000000000000000000000000000000000000000000000000000000000000004657696c6c20457468657265756d207375636365737366756c6c7920636f6d706c65746520746865206e657874206d616a6f72207570677261646520696e20513220323032353f0000000000000000000000000000000000000000000000000000000000000000000000000000000000000000000000000000000000000000000a546563686e6f6c6f677900000000000000000000000000000000000000000000",
          "blockHash": "0x0ee12f0a91a3d25d9932846aeba86abe9d4054285ce8ffb8bd564907437e5445",
          "blockNumber": "0x1a9108b",
          "blockTimestamp": "0x6920d9c8",
          "transactionHash": "0x35cb8fa6c0d0ae36a3e2836ac4e06231c299a9c67a6ec9701b418b9beccd4fa4",
          "transactionIndex": "0x5",
          "logIndex": "0x1",
          "removed": false
        }
      ],
      "logsBloom": "0x00000000000000000000000000000000000000000000000000000000000000000000000000000000000000000000000000000000000400000000000000000000000000000000000000000000000000000000000000040000000000000000000000000000000000000000000000000000000000000000000000000000000000000000000400000000000000000000000000000000000000000000000000000000000000000000010000000000000000000000000000000000000000080000000000000000000000000000000000000000000000000000000400000080000000000000000000000000000000000008000000000000020000000000000000000000",
      "type": "0x2",
      "transactionHash": "0x35cb8fa6c0d0ae36a3e2836ac4e06231c299a9c67a6ec9701b418b9beccd4fa4",
      "transactionIndex": "0x5",
      "blockHash": "0x0ee12f0a91a3d25d9932846aeba86abe9d4054285ce8ffb8bd564907437e5445",
      "blockNumber": "0x1a9108b",
      "gasUsed": "0x40dad",
      "effectiveGasPrice": "0x9502f90000",
      "from": "0xe610b819dd190fc8154d0190bb3f3e9758d42baa",
      "to": "0x1eb7d3769a12cbd08c28feef7c4c8ebdaa989756",
      "contractAddress": "0x1eb7d3769a12cbd08c28feef7c4c8ebdaa989756",
      "root": "0x56e81f171bcc55a6ff8345e692c0f86e5b48e01b996cadc001622fb5e363b421"
    },
    {
      "status": "0x1",
      "cumulativeGasUsed": "0xc3f45",
      "logs": [
        {
          "address": "0x1eb7d3769a12cbd08c28feef7c4c8ebdaa989756",
          "topics": [
            "0x17d90d3582c74be4b748fcd33bff502fbee3da6e29c772512a0b6eac36528be8",
            "0x0000000000000000000000000000000000000000000000000000000000000007"
          ],
          "data": "0x000000000000000000000000000000000000000000000000000000000000008000000000000000000000000000000000000000000000000000000000000001000000000000000000000000000000000000000000000000000000000069bf0dc7000000000000000000000000000000000000000000000000000000003b9aca00000000000000000000000000000000000000000000000000000000000000004257696c6c204865646572612068617665206d6f7265207468616e2031302062696c6c696f6e207472616e73616374696f6e7320627920656e64206f6620323032353f000000000000000000000000000000000000000000000000000000000000000000000000000000000000000000000000000000000000000000000000000643727970746f0000000000000000000000000000000000000000000000000000",
          "blockHash": "0x0ee12f0a91a3d25d9932846aeba86abe9d4054285ce8ffb8bd564907437e5445",
          "blockNumber": "0x1a9108b",
          "blockTimestamp": "0x6920d9c8",
          "transactionHash": "0x86e5b657302cfb3cc5e8b2daa63100931396ae516710dd34764ae1af3fc099e0",
          "transactionIndex": "0x6",
          "logIndex": "0x2",
          "removed": false
        }
      ],
      "logsBloom": "0x00000000000000000000000000000000000000000000000000000000000000000000000000000000000000000000000000001000000000000000000000000000000020000000000000000000000000000000000000040000000000000000000000000000000000000000000000000000000000000000000000000000000000000000000000000000000000000000000000000000000000000000000000000000000000000000010000000000000000000000000000000000000000000000000000000000000000000000000000000000000000000000000400000180000000000000000000000000000000000008000000000000020000000000000000000000",
      "type": "0x2",
      "transactionHash": "0x86e5b657302cfb3cc5e8b2daa63100931396ae516710dd34764ae1af3fc099e0",
      "transactionIndex": "0x6",
      "blockHash": "0x0ee12f0a91a3d25d9932846aeba86abe9d4054285ce8ffb8bd564907437e5445",
      "blockNumber": "0x1a9108b",
      "gasUsed": "0x40d4d",
      "effectiveGasPrice": "0x9502f90000",
      "from": "0xe610b819dd190fc8154d0190bb3f3e9758d42baa",
      "to": "0x1eb7d3769a12cbd08c28feef7c4c8ebdaa989756",
      "contractAddress": "0x1eb7d3769a12cbd08c28feef7c4c8ebdaa989756",
      "root": "0x56e81f171bcc55a6ff8345e692c0f86e5b48e01b996cadc001622fb5e363b421"
    }
  ],
  "libraries": [],
  "pending": [],
  "returns": {},
  "timestamp": 1763760589304,
  "chain": 296,
  "commit": "cb37dd1"
}