{
  "transactions": [
    {
      "hash": "0x36e9c728d7de0e16f8c9350d4dcb32e0eadad08b8c107e67a87c74fbafbc826f",
      "transactionType": "CALL",
      "contractName": null,
      "contractAddress": "0xd4989f2d7ba0bd0e183ca80caf08d6e7ae88203d",
      "function": "setGameContract(address)",
      "arguments": [
        "0x439922a7ba81aF5937fff6BD14043518969AB285"
      ],
      "transaction": {
        "from": "0xe610b819dd190fc8154d0190bb3f3e9758d42baa",
        "to": "0xd4989f2d7ba0bd0e183ca80caf08d6e7ae88203d",
        "gas": "0xfe9b",
        "value": "0x0",
        "input": "0x405ebd4d000000000000000000000000439922a7ba81af5937fff6bd14043518969ab285",
        "nonce": "0x5",
        "chainId": "0x128"
      },
      "additionalContracts": [],
      "isFixedGasLimit": false
    },
    {
      "hash": "0x09fb9334a2677f1c071e434ac0abed1d8fab11c68fcd4cac8243f8d549aedca7",
      "transactionType": "CALL",
      "contractName": null,
      "contractAddress": "0x27a13464a62195b8aa06a4bedf3a36f3b1d15631",
      "function": "setAddresses(address,address,address,address)",
      "arguments": [
        "0x439922a7ba81aF5937fff6BD14043518969AB285",
        "0x0000000000000000000000000000000000000000",
        "0x0000000000000000000000000000000000000000",
        "0x0000000000000000000000000000000000000000"
      ],
      "transaction": {
        "from": "0xe610b819dd190fc8154d0190bb3f3e9758d42baa",
        "to": "0x27a13464a62195b8aa06a4bedf3a36f3b1d15631",
        "gas": "0x12088",
        "value": "0x0",
        "input": "0x4a945f8d000000000000000000000000439922a7ba81af5937fff6bd14043518969ab285000000000000000000000000000000000000000000000000000000000000000000000000000000000000000000000000000000000000000000000000000000000000000000000000000000000000000000000000000000000000000000000000",
        "nonce": "0x6",
        "chainId": "0x128"
      },
      "additionalContracts": [],
      "isFixedGasLimit": false
    }
  ],
  "receipts": [
    {
      "status": "0x1",
      "cumulativeGasUsed": "0xb855",
      "logs": [
        {
          "address": "0xd4989f2d7ba0bd0e183ca80caf08d6e7ae88203d",
          "topics": [
            "0x0fda64424e106ff66a5173d9c3ec7fb2f234f4488457686975a66fe3371fd0f2",
            "0x000000000000000000000000439922a7ba81af5937fff6bd14043518969ab285"
          ],
          "data": "0x",
          "blockHash": "0x5eb03b0498045e4f1ce174ba54ef87fa384ca6ca8b1ba857e645265ac6c34593",
          "blockNumber": "0x1a86177",
          "blockTimestamp": "0x691f7ba0",
          "transactionHash": "0x36e9c728d7de0e16f8c9350d4dcb32e0eadad08b8c107e67a87c74fbafbc826f",
          "transactionIndex": "0x4",
          "logIndex": "0x0",
          "removed": false
        }
      ],
      "logsBloom": "0x00000000000000000000000000000000000000000000000000000000000000000000000000000000000000000000000000000000000000000000000000000000000000004000000000000000000000000000000000000400000000008000000000020000000000000000000000000000000000000000000000000000000000000000000000000000000000000000000000000000000020000000000000000000000000000004000000000000000000000000000000000000000000000000000000000000000000000000000000000000000000000000000000008000000000000000000000000000000000000030000000000000000000000000000000000000",
      "type": "0x0",
      "transactionHash": "0x36e9c728d7de0e16f8c9350d4dcb32e0eadad08b8c107e67a87c74fbafbc826f",
      "transactionIndex": "0x4",
      "blockHash": "0x5eb03b0498045e4f1ce174ba54ef87fa384ca6ca8b1ba857e645265ac6c34593",
      "blockNumber": "0x1a86177",
      "gasUsed": "0xb855",
      "effectiveGasPrice": "0x92aeed1c00",
      "from": "0xe610b819dd190fc8154d0190bb3f3e9758d42baa",
      "to": "0xd4989f2d7ba0bd0e183ca80caf08d6e7ae88203d",
      "contractAddress": "0xd4989f2d7ba0bd0e183ca80caf08d6e7ae88203d",
      "root": "0x56e81f171bcc55a6ff8345e692c0f86e5b48e01b996cadc001622fb5e363b421"
    }
  ],
  "libraries": [],
  "pending": [],
  "returns": {},
  "timestamp": 1763670948687,
  "chain": 296,
  "commit": null
}